{
  "_format": "hh-sol-artifact-1",
  "contractName": "EcoPOAP",
  "sourceName": "contracts/EcoPOAP.sol",
  "abi": [
    {
      "inputs": [
        {
          "internalType": "string",
          "name": "name_",
          "type": "string"
        },
        {
          "internalType": "string",
          "name": "symbol_",
          "type": "string"
        },
        {
          "internalType": "string",
          "name": "baseTokenURI_",
          "type": "string"
        },
        {
          "internalType": "uint256",
          "name": "maxSupply_",
          "type": "uint256"
        }
      ],
      "stateMutability": "nonpayable",
      "type": "constructor"
    },
    {
      "inputs": [],
      "name": "ERC721EnumerableForbiddenBatchMint",
      "type": "error"
    },
    {
      "inputs": [
        {
          "internalType": "address",
          "name": "sender",
          "type": "address"
        },
        {
          "internalType": "uint256",
          "name": "tokenId",
          "type": "uint256"
        },
        {
          "internalType": "address",
          "name": "owner",
          "type": "address"
        }
      ],
      "name": "ERC721IncorrectOwner",
      "type": "error"
    },
    {
      "inputs": [
        {
          "internalType": "address",
          "name": "operator",
          "type": "address"
        },
        {
          "internalType": "uint256",
          "name": "tokenId",
          "type": "uint256"
        }
      ],
      "name": "ERC721InsufficientApproval",
      "type": "error"
    },
    {
      "inputs": [
        {
          "internalType": "address",
          "name": "approver",
          "type": "address"
        }
      ],
      "name": "ERC721InvalidApprover",
      "type": "error"
    },
    {
      "inputs": [
        {
          "internalType": "address",
          "name": "operator",
          "type": "address"
        }
      ],
      "name": "ERC721InvalidOperator",
      "type": "error"
    },
    {
      "inputs": [
        {
          "internalType": "address",
          "name": "owner",
          "type": "address"
        }
      ],
      "name": "ERC721InvalidOwner",
      "type": "error"
    },
    {
      "inputs": [
        {
          "internalType": "address",
          "name": "receiver",
          "type": "address"
        }
      ],
      "name": "ERC721InvalidReceiver",
      "type": "error"
    },
    {
      "inputs": [
        {
          "internalType": "address",
          "name": "sender",
          "type": "address"
        }
      ],
      "name": "ERC721InvalidSender",
      "type": "error"
    },
    {
      "inputs": [
        {
          "internalType": "uint256",
          "name": "tokenId",
          "type": "uint256"
        }
      ],
      "name": "ERC721NonexistentToken",
      "type": "error"
    },
    {
      "inputs": [
        {
          "internalType": "address",
          "name": "owner",
          "type": "address"
        },
        {
          "internalType": "uint256",
          "name": "index",
          "type": "uint256"
        }
      ],
      "name": "ERC721OutOfBoundsIndex",
      "type": "error"
    },
    {
      "inputs": [
        {
          "internalType": "address",
          "name": "owner",
          "type": "address"
        }
      ],
      "name": "OwnableInvalidOwner",
      "type": "error"
    },
    {
      "inputs": [
        {
          "internalType": "address",
          "name": "account",
          "type": "address"
        }
      ],
      "name": "OwnableUnauthorizedAccount",
      "type": "error"
    },
    {
      "anonymous": false,
      "inputs": [
        {
          "indexed": true,
          "internalType": "address",
          "name": "owner",
          "type": "address"
        },
        {
          "indexed": true,
          "internalType": "address",
          "name": "approved",
          "type": "address"
        },
        {
          "indexed": true,
          "internalType": "uint256",
          "name": "tokenId",
          "type": "uint256"
        }
      ],
      "name": "Approval",
      "type": "event"
    },
    {
      "anonymous": false,
      "inputs": [
        {
          "indexed": true,
          "internalType": "address",
          "name": "owner",
          "type": "address"
        },
        {
          "indexed": true,
          "internalType": "address",
          "name": "operator",
          "type": "address"
        },
        {
          "indexed": false,
          "internalType": "bool",
          "name": "approved",
          "type": "bool"
        }
      ],
      "name": "ApprovalForAll",
      "type": "event"
    },
    {
      "anonymous": false,
      "inputs": [
        {
          "indexed": false,
          "internalType": "string",
          "name": "newURI",
          "type": "string"
        }
      ],
      "name": "BaseTokenURIUpdated",
      "type": "event"
    },
    {
      "anonymous": false,
      "inputs": [
        {
          "indexed": false,
          "internalType": "uint256",
          "name": "count",
          "type": "uint256"
        }
      ],
      "name": "BatchMinted",
      "type": "event"
    },
    {
      "anonymous": false,
      "inputs": [
        {
          "indexed": true,
          "internalType": "address",
          "name": "to",
          "type": "address"
        },
        {
          "indexed": true,
          "internalType": "uint256",
          "name": "tokenId",
          "type": "uint256"
        }
      ],
      "name": "Minted",
      "type": "event"
    },
    {
      "anonymous": false,
      "inputs": [
        {
          "indexed": true,
          "internalType": "address",
          "name": "previousOwner",
          "type": "address"
        },
        {
          "indexed": true,
          "internalType": "address",
          "name": "newOwner",
          "type": "address"
        }
      ],
      "name": "OwnershipTransferred",
      "type": "event"
    },
    {
      "anonymous": false,
      "inputs": [
        {
          "indexed": true,
          "internalType": "address",
          "name": "from",
          "type": "address"
        },
        {
          "indexed": true,
          "internalType": "address",
          "name": "to",
          "type": "address"
        },
        {
          "indexed": true,
          "internalType": "uint256",
          "name": "tokenId",
          "type": "uint256"
        }
      ],
      "name": "Transfer",
      "type": "event"
    },
    {
      "inputs": [
        {
          "internalType": "address",
          "name": "to",
          "type": "address"
        },
        {
          "internalType": "uint256",
          "name": "tokenId",
          "type": "uint256"
        }
      ],
      "name": "approve",
      "outputs": [],
      "stateMutability": "nonpayable",
      "type": "function"
    },
    {
      "inputs": [
        {
          "internalType": "address",
          "name": "owner",
          "type": "address"
        }
      ],
      "name": "balanceOf",
      "outputs": [
        {
          "internalType": "uint256",
          "name": "",
          "type": "uint256"
        }
      ],
      "stateMutability": "view",
      "type": "function"
    },
    {
      "inputs": [],
      "name": "baseTokenURI",
      "outputs": [
        {
          "internalType": "string",
          "name": "",
          "type": "string"
        }
      ],
      "stateMutability": "view",
      "type": "function"
    },
    {
      "inputs": [
        {
          "internalType": "address[]",
          "name": "recipients",
          "type": "address[]"
        }
      ],
      "name": "batchMint",
      "outputs": [],
      "stateMutability": "nonpayable",
      "type": "function"
    },
    {
      "inputs": [
        {
          "internalType": "uint256",
          "name": "tokenId",
          "type": "uint256"
        }
      ],
      "name": "getApproved",
      "outputs": [
        {
          "internalType": "address",
          "name": "",
          "type": "address"
        }
      ],
      "stateMutability": "view",
      "type": "function"
    },
    {
      "inputs": [
        {
          "internalType": "address",
          "name": "owner",
          "type": "address"
        },
        {
          "internalType": "address",
          "name": "operator",
          "type": "address"
        }
      ],
      "name": "isApprovedForAll",
      "outputs": [
        {
          "internalType": "bool",
          "name": "",
          "type": "bool"
        }
      ],
      "stateMutability": "view",
      "type": "function"
    },
    {
      "inputs": [],
      "name": "maxSupply",
      "outputs": [
        {
          "internalType": "uint256",
          "name": "",
          "type": "uint256"
        }
      ],
      "stateMutability": "view",
      "type": "function"
    },
    {
      "inputs": [
        {
          "internalType": "address",
          "name": "to",
          "type": "address"
        }
      ],
      "name": "mint",
      "outputs": [],
      "stateMutability": "nonpayable",
      "type": "function"
    },
    {
      "inputs": [],
      "name": "name",
      "outputs": [
        {
          "internalType": "string",
          "name": "",
          "type": "string"
        }
      ],
      "stateMutability": "view",
      "type": "function"
    },
    {
      "inputs": [],
      "name": "nextTokenId",
      "outputs": [
        {
          "internalType": "uint256",
          "name": "",
          "type": "uint256"
        }
      ],
      "stateMutability": "view",
      "type": "function"
    },
    {
      "inputs": [],
      "name": "owner",
      "outputs": [
        {
          "internalType": "address",
          "name": "",
          "type": "address"
        }
      ],
      "stateMutability": "view",
      "type": "function"
    },
    {
      "inputs": [
        {
          "internalType": "uint256",
          "name": "tokenId",
          "type": "uint256"
        }
      ],
      "name": "ownerOf",
      "outputs": [
        {
          "internalType": "address",
          "name": "",
          "type": "address"
        }
      ],
      "stateMutability": "view",
      "type": "function"
    },
    {
      "inputs": [],
      "name": "renounceOwnership",
      "outputs": [],
      "stateMutability": "nonpayable",
      "type": "function"
    },
    {
      "inputs": [
        {
          "internalType": "address",
          "name": "from",
          "type": "address"
        },
        {
          "internalType": "address",
          "name": "to",
          "type": "address"
        },
        {
          "internalType": "uint256",
          "name": "tokenId",
          "type": "uint256"
        }
      ],
      "name": "safeTransferFrom",
      "outputs": [],
      "stateMutability": "nonpayable",
      "type": "function"
    },
    {
      "inputs": [
        {
          "internalType": "address",
          "name": "from",
          "type": "address"
        },
        {
          "internalType": "address",
          "name": "to",
          "type": "address"
        },
        {
          "internalType": "uint256",
          "name": "tokenId",
          "type": "uint256"
        },
        {
          "internalType": "bytes",
          "name": "data",
          "type": "bytes"
        }
      ],
      "name": "safeTransferFrom",
      "outputs": [],
      "stateMutability": "nonpayable",
      "type": "function"
    },
    {
      "inputs": [
        {
          "internalType": "address",
          "name": "operator",
          "type": "address"
        },
        {
          "internalType": "bool",
          "name": "approved",
          "type": "bool"
        }
      ],
      "name": "setApprovalForAll",
      "outputs": [],
      "stateMutability": "nonpayable",
      "type": "function"
    },
    {
      "inputs": [
        {
          "internalType": "string",
          "name": "newURI",
          "type": "string"
        }
      ],
      "name": "setBaseTokenURI",
      "outputs": [],
      "stateMutability": "nonpayable",
      "type": "function"
    },
    {
      "inputs": [
        {
          "internalType": "bytes4",
          "name": "interfaceId",
          "type": "bytes4"
        }
      ],
      "name": "supportsInterface",
      "outputs": [
        {
          "internalType": "bool",
          "name": "",
          "type": "bool"
        }
      ],
      "stateMutability": "view",
      "type": "function"
    },
    {
      "inputs": [],
      "name": "symbol",
      "outputs": [
        {
          "internalType": "string",
          "name": "",
          "type": "string"
        }
      ],
      "stateMutability": "view",
      "type": "function"
    },
    {
      "inputs": [
        {
          "internalType": "uint256",
          "name": "index",
          "type": "uint256"
        }
      ],
      "name": "tokenByIndex",
      "outputs": [
        {
          "internalType": "uint256",
          "name": "",
          "type": "uint256"
        }
      ],
      "stateMutability": "view",
      "type": "function"
    },
    {
      "inputs": [
        {
          "internalType": "address",
          "name": "owner",
          "type": "address"
        },
        {
          "internalType": "uint256",
          "name": "index",
          "type": "uint256"
        }
      ],
      "name": "tokenOfOwnerByIndex",
      "outputs": [
        {
          "internalType": "uint256",
          "name": "",
          "type": "uint256"
        }
      ],
      "stateMutability": "view",
      "type": "function"
    },
    {
      "inputs": [
        {
          "internalType": "uint256",
          "name": "tokenId",
          "type": "uint256"
        }
      ],
      "name": "tokenURI",
      "outputs": [
        {
          "internalType": "string",
          "name": "",
          "type": "string"
        }
      ],
      "stateMutability": "view",
      "type": "function"
    },
    {
      "inputs": [
        {
          "internalType": "address",
          "name": "owner",
          "type": "address"
        }
      ],
      "name": "tokensOfOwner",
      "outputs": [
        {
          "internalType": "uint256[]",
          "name": "",
          "type": "uint256[]"
        }
      ],
      "stateMutability": "view",
      "type": "function"
    },
    {
      "inputs": [],
      "name": "totalSupply",
      "outputs": [
        {
          "internalType": "uint256",
          "name": "",
          "type": "uint256"
        }
      ],
      "stateMutability": "view",
      "type": "function"
    },
    {
      "inputs": [
        {
          "internalType": "address",
          "name": "from",
          "type": "address"
        },
        {
          "internalType": "address",
          "name": "to",
          "type": "address"
        },
        {
          "internalType": "uint256",
          "name": "tokenId",
          "type": "uint256"
        }
      ],
      "name": "transferFrom",
      "outputs": [],
      "stateMutability": "nonpayable",
      "type": "function"
    },
    {
      "inputs": [
        {
          "internalType": "address",
          "name": "newOwner",
          "type": "address"
        }
      ],
      "name": "transferOwnership",
      "outputs": [],
      "stateMutability": "nonpayable",
      "type": "function"
    }
  ],
  "bytecode": "0x60a06040526001600c553480156200001657600080fd5b5060405162001f7c38038062001f7c8339810160408190526200003991620001ca565b33848460006200004a8382620002f2565b506001620000598282620002f2565b5050506001600160a01b0381166200008b57604051631e4fbdf760e01b81526000600482015260240160405180910390fd5b6200009681620000b3565b50600b620000a58382620002f2565b5060805250620003be915050565b600a80546001600160a01b038381166001600160a01b0319831681179093556040519116919082907f8be0079c531659141344cd1fd0a4f28419497f9722a3daafe3b4186f6b6457e090600090a35050565b634e487b7160e01b600052604160045260246000fd5b600082601f8301126200012d57600080fd5b81516001600160401b03808211156200014a576200014a62000105565b604051601f8301601f19908116603f0116810190828211818310171562000175576200017562000105565b816040528381526020925086838588010111156200019257600080fd5b600091505b83821015620001b6578582018301518183018401529082019062000197565b600093810190920192909252949350505050565b60008060008060808587031215620001e157600080fd5b84516001600160401b0380821115620001f957600080fd5b62000207888389016200011b565b955060208701519150808211156200021e57600080fd5b6200022c888389016200011b565b945060408701519150808211156200024357600080fd5b5062000252878288016200011b565b606096909601519497939650505050565b600181811c908216806200027857607f821691505b6020821081036200029957634e487b7160e01b600052602260045260246000fd5b50919050565b601f821115620002ed57600081815260208120601f850160051c81016020861015620002c85750805b601f850160051c820191505b81811015620002e957828155600101620002d4565b5050505b505050565b81516001600160401b038111156200030e576200030e62000105565b62000326816200031f845462000263565b846200029f565b602080601f8311600181146200035e5760008415620003455750858301515b600019600386901b1c1916600185901b178555620002e9565b600085815260208120601f198616915b828110156200038f578886015182559484019460019091019084016200036e565b5085821015620003ae5787850151600019600388901b60f8161c191681555b5050505050600190811b01905550565b608051611b94620003e86000396000818161034a01528181610b310152610b570152611b946000f3fe608060405234801561001057600080fd5b506004361061018e5760003560e01c8063715018a6116100de578063b88d4fde11610097578063d5abeb0111610071578063d5abeb0114610345578063d67b06c11461036c578063e985e9c51461037f578063f2fde38b1461039257600080fd5b8063b88d4fde14610317578063c87b56dd1461032a578063d547cfb71461033d57600080fd5b8063715018a6146102ba57806375794a3c146102c25780638462151c146102cb5780638da5cb5b146102eb57806395d89b41146102fc578063a22cb4651461030457600080fd5b80632f745c591161014b5780634f6ccce7116101255780634f6ccce71461026e5780636352211e146102815780636a6278421461029457806370a08231146102a757600080fd5b80632f745c591461023557806330176e131461024857806342842e0e1461025b57600080fd5b806301ffc9a71461019357806306fdde03146101bb578063081812fc146101d0578063095ea7b3146101fb57806318160ddd1461021057806323b872dd14610222575b600080fd5b6101a66101a1366004611488565b6103a5565b60405190151581526020015b60405180910390f35b6101c36103b6565b6040516101b291906114fc565b6101e36101de36600461150f565b610448565b6040516001600160a01b0390911681526020016101b2565b61020e610209366004611544565b610471565b005b6008545b6040519081526020016101b2565b61020e61023036600461156e565b610480565b610214610243366004611544565b610510565b61020e6102563660046115aa565b610575565b61020e61026936600461156e565b6105c8565b61021461027c36600461150f565b6105e8565b6101e361028f36600461150f565b610641565b61020e6102a236600461161c565b61064c565b6102146102b536600461161c565b610660565b61020e6106a8565b610214600c5481565b6102de6102d936600461161c565b6106bc565b6040516101b29190611637565b600a546001600160a01b03166101e3565b6101c361075e565b61020e61031236600461167b565b61076d565b61020e6103253660046116cd565b610778565b6101c361033836600461150f565b610790565b6101c3610820565b6102147f000000000000000000000000000000000000000000000000000000000000000081565b61020e61037a3660046117a9565b61082f565b6101a661038d36600461180c565b610903565b61020e6103a036600461161c565b610931565b60006103b08261096c565b92915050565b6060600080546103c59061183f565b80601f01602080910402602001604051908101604052809291908181526020018280546103f19061183f565b801561043e5780601f106104135761010080835404028352916020019161043e565b820191906000526020600020905b81548152906001019060200180831161042157829003601f168201915b5050505050905090565b600061045382610991565b506000828152600460205260409020546001600160a01b03166103b0565b61047c8282336109ca565b5050565b6001600160a01b0382166104af57604051633250574960e11b8152600060048201526024015b60405180910390fd5b60006104bc8383336109d7565b9050836001600160a01b0316816001600160a01b03161461050a576040516364283d7b60e01b81526001600160a01b03808616600483015260248201849052821660448201526064016104a6565b50505050565b600061051b83610660565b821061054c5760405163295f44f760e21b81526001600160a01b0384166004820152602481018390526044016104a6565b506001600160a01b03919091166000908152600660209081526040808320938352929052205490565b61057d610aac565b600b61058a8284836118bf565b507fe6e4cd5c2dc7d2c20519b41832cd550fd3ea1186bf299d108179bf71fb8e00e582826040516105bc92919061197f565b60405180910390a15050565b6105e383838360405180602001604052806000815250610778565b505050565b60006105f360085490565b821061061c5760405163295f44f760e21b815260006004820152602481018390526044016104a6565b6008828154811061062f5761062f6119ae565b90600052602060002001549050919050565b60006103b082610991565b610654610aac565b61065d81610ad9565b50565b60006001600160a01b03821661068c576040516322718ad960e21b8152600060048201526024016104a6565b506001600160a01b031660009081526003602052604090205490565b6106b0610aac565b6106ba6000610c28565b565b606060006106c983610660565b905060008167ffffffffffffffff8111156106e6576106e66116b7565b60405190808252806020026020018201604052801561070f578160200160208202803683370190505b50905060005b82811015610756576107278582610510565b828281518110610739576107396119ae565b60209081029190910101528061074e816119da565b915050610715565b509392505050565b6060600180546103c59061183f565b61047c338383610c7a565b610783848484610480565b61050a3385858585610d19565b6000818152600260205260409020546060906001600160a01b03166107ee5760405162461bcd60e51b8152602060048201526014602482015273151bdad95b88191bd95cc81b9bdd08195e1a5cdd60621b60448201526064016104a6565b600b6107f983610e44565b60405160200161080a9291906119f3565b6040516020818303038152906040529050919050565b6060600b80546103c59061183f565b610837610aac565b808061087e5760405162461bcd60e51b8152602060048201526016602482015275456d70747920726563697069656e747320617272617960501b60448201526064016104a6565b60005b818110156108ca576108b884848381811061089e5761089e6119ae565b90506020020160208101906108b3919061161c565b610ad9565b806108c2816119da565b915050610881565b506040518181527f871711e6f05ecc6edc3025cb9c0ab5b2cf4a9733f3f628e62aee9d5702188f889060200160405180910390a1505050565b6001600160a01b03918216600090815260056020908152604080832093909416825291909152205460ff1690565b610939610aac565b6001600160a01b03811661096357604051631e4fbdf760e01b8152600060048201526024016104a6565b61065d81610c28565b60006001600160e01b0319821663780e9d6360e01b14806103b057506103b082610f45565b6000818152600260205260408120546001600160a01b0316806103b057604051637e27328960e01b8152600481018490526024016104a6565b6105e38383836001610f95565b6000806109e585858561109b565b90506001600160a01b038116610a4257610a3d84600880546000838152600960205260408120829055600182018355919091527ff3f7a9fe364faab93b216da50a3214154f22a0a2b415b23a84c8169e8b636ee30155565b610a65565b846001600160a01b0316816001600160a01b031614610a6557610a658185611194565b6001600160a01b038516610a8157610a7c84611215565b610aa4565b846001600160a01b0316816001600160a01b031614610aa457610aa485856112c4565b949350505050565b600a546001600160a01b031633146106ba5760405163118cdaa760e01b81523360048201526024016104a6565b6001600160a01b038116610b2f5760405162461bcd60e51b815260206004820152601b60248201527f43616e6e6f74206d696e7420746f207a65726f2061646472657373000000000060448201526064016104a6565b7f000000000000000000000000000000000000000000000000000000000000000015610bcd577f0000000000000000000000000000000000000000000000000000000000000000610b7f60085490565b610b8a906001611a8a565b1115610bcd5760405162461bcd60e51b815260206004820152601260248201527113585e081cdd5c1c1b1e481c995858da195960721b60448201526064016104a6565b600c805460009182610bde836119da565b919050559050610bee8282611314565b60405181906001600160a01b038416907f30385c845b448a36257a6a1716e6ad2e1bc2cbe333cde1e69fe849ad6511adfe90600090a35050565b600a80546001600160a01b038381166001600160a01b0319831681179093556040519116919082907f8be0079c531659141344cd1fd0a4f28419497f9722a3daafe3b4186f6b6457e090600090a35050565b6001600160a01b038216610cac57604051630b61174360e31b81526001600160a01b03831660048201526024016104a6565b6001600160a01b03838116600081815260056020908152604080832094871680845294825291829020805460ff191686151590811790915591519182527f17307eab39ab6107e8899845ad3d59bd9653f200f220920489ca2b5937696c31910160405180910390a3505050565b6001600160a01b0383163b15610e3d57604051630a85bd0160e11b81526001600160a01b0384169063150b7a0290610d5b908890889087908790600401611a9d565b6020604051808303816000875af1925050508015610d96575060408051601f3d908101601f19168201909252610d9391810190611ada565b60015b610dff573d808015610dc4576040519150601f19603f3d011682016040523d82523d6000602084013e610dc9565b606091505b508051600003610df757604051633250574960e11b81526001600160a01b03851660048201526024016104a6565b805160208201fd5b6001600160e01b03198116630a85bd0160e11b14610e3b57604051633250574960e11b81526001600160a01b03851660048201526024016104a6565b505b5050505050565b606081600003610e6b5750506040805180820190915260018152600360fc1b602082015290565b8160005b8115610e955780610e7f816119da565b9150610e8e9050600a83611b0d565b9150610e6f565b60008167ffffffffffffffff811115610eb057610eb06116b7565b6040519080825280601f01601f191660200182016040528015610eda576020820181803683370190505b5090505b8415610aa457610eef600183611b21565b9150610efc600a86611b34565b610f07906030611a8a565b60f81b818381518110610f1c57610f1c6119ae565b60200101906001600160f81b031916908160001a905350610f3e600a86611b0d565b9450610ede565b60006001600160e01b031982166380ac58cd60e01b1480610f7657506001600160e01b03198216635b5e139f60e01b145b806103b057506301ffc9a760e01b6001600160e01b03198316146103b0565b8080610fa957506001600160a01b03821615155b1561106b576000610fb984610991565b90506001600160a01b03831615801590610fe55750826001600160a01b0316816001600160a01b031614155b8015610ff85750610ff68184610903565b155b156110215760405163a9fbf51f60e01b81526001600160a01b03841660048201526024016104a6565b81156110695783856001600160a01b0316826001600160a01b03167f8c5be1e5ebec7d5bd14f71427d1e84f3dd0314c0f7b2291e5b200ac8c7c3b92560405160405180910390a45b505b5050600090815260046020526040902080546001600160a01b0319166001600160a01b0392909216919091179055565b6000828152600260205260408120546001600160a01b03908116908316156110c8576110c881848661132e565b6001600160a01b03811615611106576110e5600085600080610f95565b6001600160a01b038116600090815260036020526040902080546000190190555b6001600160a01b03851615611135576001600160a01b0385166000908152600360205260409020805460010190555b60008481526002602052604080822080546001600160a01b0319166001600160a01b0389811691821790925591518793918516917fddf252ad1be2c89b69c2b068fc378daa952ba7f163c4a11628f55a4df523b3ef91a4949350505050565b600061119f83610660565b6000838152600760209081526040808320546001600160a01b03881684526006909252909120919250908183146111f657600083815260208281526040808320548584528184208190558352600790915290208290555b6000938452600760209081526040808620869055938552525081205550565b60085460009061122790600190611b21565b6000838152600960205260408120546008805493945090928490811061124f5761124f6119ae565b906000526020600020015490508060088381548110611270576112706119ae565b60009182526020808320909101929092558281526009909152604080822084905585825281205560088054806112a8576112a8611b48565b6001900381819060005260206000200160009055905550505050565b600060016112d184610660565b6112db9190611b21565b6001600160a01b039093166000908152600660209081526040808320868452825280832085905593825260079052919091209190915550565b61047c828260405180602001604052806000815250611392565b6113398383836113aa565b6105e3576001600160a01b03831661136757604051637e27328960e01b8152600481018290526024016104a6565b60405163177e802f60e01b81526001600160a01b0383166004820152602481018290526044016104a6565b61139c838361140d565b6105e3336000858585610d19565b60006001600160a01b03831615801590610aa45750826001600160a01b0316846001600160a01b031614806113e457506113e48484610903565b80610aa45750506000908152600460205260409020546001600160a01b03908116911614919050565b6001600160a01b03821661143757604051633250574960e11b8152600060048201526024016104a6565b6000611445838360006109d7565b90506001600160a01b038116156105e3576040516339e3563760e11b8152600060048201526024016104a6565b6001600160e01b03198116811461065d57600080fd5b60006020828403121561149a57600080fd5b81356114a581611472565b9392505050565b60005b838110156114c75781810151838201526020016114af565b50506000910152565b600081518084526114e88160208601602086016114ac565b601f01601f19169290920160200192915050565b6020815260006114a560208301846114d0565b60006020828403121561152157600080fd5b5035919050565b80356001600160a01b038116811461153f57600080fd5b919050565b6000806040838503121561155757600080fd5b61156083611528565b946020939093013593505050565b60008060006060848603121561158357600080fd5b61158c84611528565b925061159a60208501611528565b9150604084013590509250925092565b600080602083850312156115bd57600080fd5b823567ffffffffffffffff808211156115d557600080fd5b818501915085601f8301126115e957600080fd5b8135818111156115f857600080fd5b86602082850101111561160a57600080fd5b60209290920196919550909350505050565b60006020828403121561162e57600080fd5b6114a582611528565b6020808252825182820181905260009190848201906040850190845b8181101561166f57835183529284019291840191600101611653565b50909695505050505050565b6000806040838503121561168e57600080fd5b61169783611528565b9150602083013580151581146116ac57600080fd5b809150509250929050565b634e487b7160e01b600052604160045260246000fd5b600080600080608085870312156116e357600080fd5b6116ec85611528565b93506116fa60208601611528565b925060408501359150606085013567ffffffffffffffff8082111561171e57600080fd5b818701915087601f83011261173257600080fd5b813581811115611744576117446116b7565b604051601f8201601f19908116603f0116810190838211818310171561176c5761176c6116b7565b816040528281528a602084870101111561178557600080fd5b82602086016020830137600060208483010152809550505050505092959194509250565b600080602083850312156117bc57600080fd5b823567ffffffffffffffff808211156117d457600080fd5b818501915085601f8301126117e857600080fd5b8135818111156117f757600080fd5b8660208260051b850101111561160a57600080fd5b6000806040838503121561181f57600080fd5b61182883611528565b915061183660208401611528565b90509250929050565b600181811c9082168061185357607f821691505b60208210810361187357634e487b7160e01b600052602260045260246000fd5b50919050565b601f8211156105e357600081815260208120601f850160051c810160208610156118a05750805b601f850160051c820191505b81811015610e3b578281556001016118ac565b67ffffffffffffffff8311156118d7576118d76116b7565b6118eb836118e5835461183f565b83611879565b6000601f84116001811461191f57600085156119075750838201355b600019600387901b1c1916600186901b178355610e3d565b600083815260209020601f19861690835b828110156119505786850135825560209485019460019092019101611930565b508682101561196d5760001960f88860031b161c19848701351681555b505060018560011b0183555050505050565b60208152816020820152818360408301376000818301604090810191909152601f909201601f19160101919050565b634e487b7160e01b600052603260045260246000fd5b634e487b7160e01b600052601160045260246000fd5b6000600182016119ec576119ec6119c4565b5060010190565b6000808454611a018161183f565b60018281168015611a195760018114611a2e57611a5d565b60ff1984168752821515830287019450611a5d565b8860005260208060002060005b85811015611a545781548a820152908401908201611a3b565b50505082870194505b505050508351611a718183602088016114ac565b64173539b7b760d91b9101908152600501949350505050565b808201808211156103b0576103b06119c4565b6001600160a01b0385811682528416602082015260408101839052608060608201819052600090611ad0908301846114d0565b9695505050505050565b600060208284031215611aec57600080fd5b81516114a581611472565b634e487b7160e01b600052601260045260246000fd5b600082611b1c57611b1c611af7565b500490565b818103818111156103b0576103b06119c4565b600082611b4357611b43611af7565b500690565b634e487b7160e01b600052603160045260246000fdfea26469706673582212200d92111b44031e6e19027fab43ced18802f829cb7424db8650bb3de0924ef62164736f6c63430008150033",
  "linkReferences": {},
  "deployedLinkReferences": {}
}